:100000000C942A000C9447000C9447000C94470071
:100010000C9447000C9447000C9447000C94470044
:100020000C9447000C9447000C9403010C94470077
:100030000C9447000C9447000C9447000C94470024
:100040000C9447000C9447000C9447000C94470014
:100050000C94470011241FBECFE5D4E0DEBFCDBF16
:1000600010E0A0E6B0E0EEE8F2E002C005900D92EC
:10007000AA36B107D9F720E0AAE6B0E001C01D9288
:10008000AA36B207E1F70E9451000C9445010C9486
:100090000000BE9A88B3806388BB8DB1806C8DB937
:1000A00008958FEF8ABB84BB81BB0E94490078947E
:1000B000FFCFFC01AE9A9C01ADECBCEC0E94360176
:1000C000AC015695479556954795569547959A0193
:1000D0000E94360196958795969587959695879572
:1000E0009C01220F331F880F991F880F991F880FBB
:1000F000991F820F931FDA01A81BB90BA05ABF4F9B
:100100008C9182BB8FEC97E00197F1F700C0000063
:10011000AE98AF9ACA01880F991F440F551F440F1C
:10012000551F440F551F480F591FE41BF50BE05A8C
:10013000FF4F808182BB8FEC97E00197F1F700C001
:100140000000AF980895DF92EF92FF920F931F93F4
:10015000CF93DF93D82EE62EF42E88237CF0AB9A33
:10016000C4EFD1E00D2D0D2C000C110BC8010E9425
:1001700059002197D9F7DA94DD208CF7AB98EE205F
:100180007CF0AC9AC4EFD1E00E2D0E2C000C110BBC
:10019000C8010E9459002197D9F7EA94EE208CF704
:1001A000AC98FF207CF0AD9AC4EFD1E00F2D0F2C5E
:1001B000000C110BC8010E9459002197D9F7FA943D
:1001C000FF208CF7AD98DF91CF911F910F91FF9099
:1001D000EF90DF900895811106C04AE065E08FE05E
:1001E0000E94A3000895813031F44AE065E08AE07E
:1001F0000E94A3000895823029F44FE065E084E175
:100200000E94A30008951F920F920FB60F9211241F
:100210002F933F934F935F936F937F938F939F930E
:10022000AF93BF93EF93FF938FB1811103C00E94EF
:10023000EB000BC08FB1813019F40E94EB0005C0B8
:100240008FB1823011F40E94EB00FF91EF91BF91CA
:10025000AF919F918F917F916F915F914F913F915E
:100260002F910F900FBE0F901F901895A29FB00175
:10027000B39FC001A39F700D811D1124911DB29FDA
:0E028000700D811D1124911D0895F894FFCF7B
:0A028E00C0F9A4B0999282F88090A4
:00000001FF
